:020000040000FA
:100000000C9462000C948A000C948A000C948A0070
:100010000C948A000C948A000C948A000C948A0038
:100020000C948A000C948A000C948A000C948A0028
:100030000C948A000C948A000C948A000C948A0018
:100040000C940A040C948A000C94D8030C94B20308
:100050000C948A000C948A000C948A000C948A00F8
:100060000C948A000C948A000000000024002700F1
:100070002A0000000000250028002B0000000008D6
:10008000000201000003040700000000000000005F
:10009000010204081020408001020408102001021F
:1000A000040810200000000023002600290004049A
:1000B0000404040404040202020202020303030310
:1000C0000303900411241FBECFEFD8E0DEBFCDBFE5
:1000D00011E0A0E0B1E0E2E3F5E102C005900D928D
:1000E000A834B107D9F722E0A8E4B1E001C01D921D
:1000F000AB3CB207E1F710E0C2E6D0E004C02197C4
:10010000FE010E94910AC136D107C9F70E9422055B
:100110000C94970A0C94000085E480937C008091F5
:100120007A00806480937A0080917A0086FDFCCF0B
:10013000A0917800B091790028EE33E00E948A0AFD
:100140002FEF33E040E050E00E94E008293E83E0DA
:10015000380714F028EE33E037FF02C030E020E02B
:10016000B901330F880B990B0E94680928E431EE1E
:100170004AEF5EE30E94D10920E030E040E450E421
:100180000E94D1090E943009CB010895AF92BF921D
:10019000CF92DF92EF92FF920F931F93CF93DF9353
:1001A0006C017B018B01040F151FEB015E01AE1882
:1001B000BF08C017D10759F06991D601ED91FC91A4
:1001C0000190F081E02DC6010995892B79F7C501D1
:1001D000DF91CF911F910F91FF90EF90DF90CF9023
:1001E000BF90AF900895FC01538D448D252F30E0D2
:1001F000842F90E0821B930B541710F0CF96089534
:1002000001970895FC01918D828D981761F0A28D60
:10021000AE0FBF2FB11D5D968C91928D9F5F9F7326
:10022000928F90E008958FEF9FEF0895FC01918DDC
:10023000828D981731F0828DE80FF11D858D90E049
:1002400008958FEF9FEF0895FC01918D228D892FE6
:1002500090E0805C9F4F821B91098F7399270895CE
:1002600082E691E00E94240121E0892B09F420E03C
:10027000822F089580E090E0892B29F00E943001C0
:1002800081110C9400000895FC01A48DA80FB92FD2
:10029000B11DA35ABF4F2C91848D90E001968F73AE
:1002A0009927848FA689B7892C93A089B1898C91CD
:1002B000837080648C93938D848D981306C002881C
:1002C000F389E02D80818F7D80830895EF92FF92E6
:1002D0000F931F93CF93DF93EC0181E0888F9B8D69
:1002E0008C8D98131AC0E889F989808185FF15C023
:1002F0009FB7F894EE89FF896083E889F989808146
:100300008370806480839FBF81E090E0DF91CF9114
:100310001F910F91FF90EF900895F62E0B8D10E036
:100320000F5F1F4F0F731127E02E8C8D8E110CC0A5
:100330000FB607FCFACFE889F989808185FFF5CFF0
:10034000CE010E944401F1CFEB8DEC0FFD2FF11D8A
:10035000E35AFF4FF0829FB7F8940B8FEA89FB892D
:1003600080818062CFCFCF93DF93EC01888D88238B
:10037000B9F0AA89BB89E889F9898C9185FD03C008
:10038000808186FD0DC00FB607FCF7CF8C9185FFED
:10039000F2CF808185FFEDCFCE010E944401E9CFED
:1003A000DF91CF91089590E0FC01E458FF4F249134
:1003B000FC01E057FF4F3491FC01E255FF4FE491FF
:1003C000EE23C9F0222339F0233001F1A8F42130C3
:1003D00019F1223029F1F0E0EE0FFF1FEE58FF4F28
:1003E000A591B4918FB7F894EC91611126C0309526
:1003F0003E233C938FBF08952730A9F02830C9F0E1
:10040000243049F7809180008F7D03C08091800067
:100410008F7780938000DFCF84B58F7784BDDBCF6B
:1004200084B58F7DFBCF8091B0008F778093B00033
:10043000D2CF8091B0008F7DF9CF3E2BDACF2FB78E
:10044000F89460914D0170914E0180914F0190910F
:1004500050012FBF08958F929F92AF92BF92CF927B
:10046000DF92EF92FF920F931F93CF93DF93EC01F4
:10047000898182FD14C085FD12C0EC89FD8920812F
:100480003E8981FB992790F983FB882780F989278A
:10049000922F932321E009F020E082278A8B0E948B
:1004A0001F02AB01BC019A892B898881992309F429
:1004B0007BC0211179C080FD5DC0816088834E873B
:1004C0005F87688B798B8B89882319F1992309F1D0
:1004D0000D811E8130E020E0CE84DF84E888F98839
:1004E0004A015B018C189D08AE08BF0875016401C4
:1004F000C016D106E206F30660F0888181FD09C0CE
:100500002B852D878A648F7788834E875F87688BDA
:10051000798B0E851F8528893989401B510B620B09
:10052000730B0F81188530E020E0401751076207F8
:10053000730750F08B85882339F0911105C08C87A3
:100540001B86888184608883898186FF06C01C861B
:1005500098819B7F98838F7B8983DF91CF911F91B7
:100560000F91FF90EF90DF90CF90BF90AF909F9052
:100570008F9008950E851F85288939896A017B012E
:10058000C01AD10AE20AF30A0B811C8130E020E094
:10059000C016D106E206F30608F4BBCF21E02B8B90
:1005A0008062806888838FCF8E7F888391118BCF04
:1005B000222309F4AECF1B8A81FD03C08B858F5F98
:1005C0008B8788818D7F806188834E875F87688B6A
:1005D000798B86FF04C01C861B868F7B888388816D
:1005E00087FF97CF8F7788838981816089836BCFDD
:1005F000CF93DF93EC01898184FF03C0CE010E9479
:100600002B02988195FB882780F995FF02C09F7D7A
:100610009883DF91CF910895CF92DF92EF92FF926E
:100620000F931F93CF93DF93EC018B01F42E4423A0
:1006300031F00E941F0269837A838B839C838F81B0
:10064000811111C0FF2079F00115110561F00E94A0
:100650001F0269837A838B839C8381E08F8361E0AF
:1006600088810E94D3018F818823C1F00E941F02DC
:10067000C980DA80EB80FC80AB01BC014C195D09BC
:100680006E097F0930E020E04017510762077307C9
:1006900028F01F8260E088810E94D3018F8190E062
:1006A000DF91CF911F910F91FF90EF90DF90CF904E
:1006B0000895CF93DF93EC01862F2CE330E03C8349
:1006C0002B8324EF31E03E832D8338872F8320E96D
:1006D00031E03A8729871B861C861D861E861F8669
:1006E000188A198A1A8A1B8A6A8399819F7D977F43
:1006F000998362E00E9454048A8190E0FC01E255F3
:10070000FF4FE491F0E0EE0FFF1FEC55FF4F2591F6
:1007100034913D8B2C8BFC01E057FF4FE491EE8B25
:1007200089818B7E8D7F8983DF91CF910895FC0134
:1007300001900020E9F73197AF01481B590BBC012C
:1007400082E691E00C94C600CF93DF930E9497035A
:10075000EC0182E191E00E9497038C0F9D1FDF91D5
:10076000CF9108951F920F920FB60F9211242F93DD
:100770003F934F935F936F937F938F939F93AF9329
:10078000BF93EF93FF9382E691E00E944401FF91B3
:10079000EF91BF91AF919F918F917F916F915F91F9
:1007A0004F913F912F910F900FBE0F901F90189572
:1007B0001F920F920FB60F9211242F938F939F9336
:1007C000EF93FF93E0917201F09173018081E091CA
:1007D0007801F091790182FD1BC0908180917B01AD
:1007E0008F5F8F7320917C01821741F0E0917B0134
:1007F000F0E0EE59FE4F958F80937B01FF91EF91D2
:100800009F918F912F910F900FBE0F901F90189571
:100810008081F4CF1F920F920FB60F9211242F9365
:100820003F938F939F93AF93BF9380914D0190918E
:100830004E01A0914F01B091500130914C0123E045
:10084000230F2D3758F50196A11DB11D20934C01A2
:1008500080934D0190934E01A0934F01B0935001AE
:100860008091480190914901A0914A01B0914B01BA
:100870000196A11DB11D8093480190934901A09359
:100880004A01B0934B01BF91AF919F918F913F91DE
:100890002F910F900FBE0F901F90189526E8230FF1
:1008A0000296A11DB11DD2CFCF93DF9390E0FC0142
:1008B000E057FF4F249182559F4FFC01849188237C
:1008C000C9F090E0880F991FFC01E859FF4FA591EE
:1008D000B491FC01EE58FF4FC591D49161110DC048
:1008E0009FB7F8948C91209582238C93888128233C
:1008F00028839FBFDF91CF910895623051F49FB755
:10090000F8943C91822F809583238C93E8812E2B41
:10091000EFCF8FB7F894EC912E2B2C938FBFEACFAB
:10092000E2E6F1E01382128288EE93E0A0E0B0E00C
:1009300084839583A683B78384E091E09183808349
:1009400085EC90E09587848784EC90E09787868794
:1009500080EC90E0918B808B81EC90E0938B828B8C
:1009600082EC90E0958B848B86EC90E0978B868B65
:10097000118E128E138E148E88E592E09093CA0227
:100980008093C90280E69AEE9093C8028093C702D2
:1009900080EC94EDA0E0B0E08093C3029093C40299
:1009A000A093C502B093C60288EE93E09093C20272
:1009B0008093C1026AE08AEA92E00E9459036BE0E8
:1009C00083E992E00E9459036CE08CE792E00E9478
:1009D00059036DE085E692E00E94590362E18EE4DE
:1009E00092E00E94590361E187E392E00E9459037B
:1009F00085E080932F0261E00E94540488E0809398
:100A0000270261E00E94540482E080931F0261E0AB
:100A10000E94540483E08093170261E00E94540412
:100A200084E080930F0261E00E94540487E0809389
:100A3000070261E00E94540486E08093FF0161E0B8
:100A40000C945404CF93DF93CDB7DEB7A1970FB6C4
:100A5000F894DEBF0FBECDBF789484B5826084BDAC
:100A600084B5816084BD85B5826085BD85B58160B2
:100A700085BD80916E00816080936E001092810030
:100A800080918100826080938100809181008160EB
:100A900080938100809180008160809380008091AC
:100AA000B10084608093B1008091B0008160809338
:100AB000B00080917A00846080937A0080917A00FF
:100AC000826080937A0080917A00816080937A00BE
:100AD00080917A00806880937A001092C10088EC3F
:100AE00090E09093B2028093B10288EE93E09093ED
:100AF0006B0280936A02E0917201F091730182E0CF
:100B00008083E0916E01F0916F011082E09170019D
:100B1000F09171018FEC808310927A01E09176015F
:100B2000F091770186E08083E0917401F091750186
:100B3000808180618083E0917401F09175018081F2
:100B400088608083E0917401F091750180818068F4
:100B50008083E0917401F091750180818F7D8083A5
:100B60004AE0442E512C612C712C50EDA52E57E0FB
:100B7000B52E60E7262E67E1362E70EB872E74E0E7
:100B8000972E8AEA92E00E942B028CE792E00E9464
:100B90002B0283E992E00E942B0285E692E00E94FC
:100BA0002B028EE492E00E942B0287E392E00E94E7
:100BB0002B020091C9021091CA0240E0B80187E1FE
:100BC00092E00E940C0340E0B8018FE092E00E94A6
:100BD0000C03609160017091610140E08FE192E04F
:100BE0000E940C036091C3027091C40240E087E050
:100BF00092E00E940C036091C1027091C20240E039
:100C000087E292E00E940C0360915C0170915D01AB
:100C100040E08FEF91E00E940C03609158017091C9
:100C2000590140E08FE292E00E940C038091AB02F8
:100C300084FF04C08AEA92E00E942B028091AB02FA
:100C400080FF29C08E7F8093AB0285E191E00E94F6
:100C5000A4036091C9027091CA0241E087E192E069
:100C60000E940C03B0926101A092600141E060ED2E
:100C700077E08FE192E00E940C0340E070E060E0DA
:100C80008FEF91E00E940C0340E070E060E08FE2A3
:100C900092E00E940C038091AB0284FF04C08AEAB8
:100CA00092E00E942B028091AA0286FF35C06091DB
:100CB000C9027091CA0241E087E192E00E940C03F0
:100CC000B0926101A092600141E060ED77E08FE1B8
:100CD00092E00E940C038091C7029091C8022EE11D
:100CE000289FB001299F700D1124CB01B0E0A0E036
:100CF00080935C0190935D01A0935E01B0935F01CE
:100D000041E08FEF91E00E940C0340E070E060E072
:100D10008FE292E00E940C038CE792E00E94F802BE
:100D2000882309F443C08CE191E00E94A403609100
:100D3000C9027091CA0241E08FE092E00E940C0368
:100D400088EE93E0909361018093600141E068EE4A
:100D500073E08FE192E00E940C038091C7029091B2
:100D6000C802EEE1E89F8001E99F100D112468019F
:100D7000F12CE12CC0925C01D0925D01E0925E0109
:100D8000F0925F0141E0B8018FEF91E00E940C0307
:100D9000C0925801D0925901E0925A01F0925B0141
:100DA00041E0B8018FE292E00E940C0383E992E0F7
:100DB0000E94F8028823B1F184E291E00E94A4032A
:100DC000C090C302D090C402E090C502F090C60269
:100DD00040E0B60187E092E00E940C03892B09F005
:100DE000A1C184EF91E0909361018093600141E0A3
:100DF00064EF71E08FE192E00E940C03C092580111
:100E0000D0925901E0925A01F0925B0141E0B601A3
:100E10008FE292E00E940C0341E0B60187E092E08D
:100E20000E940C0385E692E00E94F802882359F1A3
:100E30006091C3027091C40240E087E092E00E949A
:100E40000C03892B01F18091570181111CC0809105
:100E50004F0284FF04C08EE492E00E942B02809136
:100E60006002882381F08AE291E00E94A4036091ED
:100E7000C1027091C20241E087E292E00E940C033D
:100E800081E0809357018091660284FF04C085E66B
:100E900092E00E942B028091650286FF5EC0609105
:100EA000C3027091C40240E087E092E00E940C030C
:100EB000892B09F052C080E391E00E94A403309294
:100EC00061012092600141E060E777E18FE192E00B
:100ED0000E940C030E941F026B017C010E941F02F2
:100EE0006C197D098E099F0960377741810591054D
:100EF000A0F58AEA92E00E942B028CE792E00E9421
:100F00002B0283E992E00E942B0285E692E00E9488
:100F10002B028AEA92E00E94F802882309F40FC1AA
:100F20008091C7029091C802880F991F880F991F5E
:100F3000B0E0A0E08093C3029093C402A093C502E6
:100F4000B093C60285E391E00E94A40340E070E004
:100F500060E08FE192E00E940C0360915C0170916F
:100F60005D0140E08FEF91E00E940C03892B09F4B2
:100F700041C00E941F020091530110915401209121
:100F8000550130915601601B710B820B930B613D33
:100F900077408105910570F10E948C008C0190933F
:100FA0005201809351010E941F026093530170937C
:100FB0005401809355019093560104311540D4F0AB
:100FC0008091C7029091C802EEE1E89FB001E99FCD
:100FD000700D1124CB01B0E0A0E080935C019093F0
:100FE0005D01A0935E01B0935F0141E08FEF91E05E
:100FF0000E940C03809157018823E1F080914F02F9
:1010000084FF04C08EE492E00E942B028091600273
:10101000811110C01092570140E070E060E08FE253
:1010200092E00E940C0340E070E060E087E092E014
:101030000E940C036091C3027091C40240E087E0FB
:1010400092E00E940C03892B09F45FC08091570144
:10105000882309F45AC00E941F0200915301109185
:1010600054012091550130915601601B710B820B88
:10107000930B0E94660920E030E04AEF53E40E949F
:10108000CC0918160CF041C00E948C008C01909382
:101090005201809351010E941F026093530170938B
:1010A000540180935501909356010431F5E01F07D8
:1010B00064F19801110F440B550B19A27E0181E2D6
:1010C000E80EF11CCA01B901A30192010E94FF08B8
:1010D000605DF70162937F012115310541055105DE
:1010E00089F7309719F0CF010E94970382E191E0D0
:1010F0000E949703909261018092600141E060EB51
:1011000074E08FE192E00E940C0380E090E0892B74
:1011100009F437CD0E943001882309F432CD0E94B2
:1011200000002FCD1092570140E070E060E08FE2A8
:1011300092E00E940C0340E070E060E06FCE83E933
:1011400092E00E94F8028823B9F02091C702309102
:10115000C802F6E0F29FC001F39F900D1124B0E0A9
:10116000A0E08093C3029093C402A093C502B09301
:10117000C6028BE391E0E8CE8CE792E00E94F80291
:101180008823B1F08091C7029091C80223E0880FB4
:10119000991F2A95E1F7B0E0A0E08093C3029093F5
:1011A000C402A093C502B093C60281E491E0CCCE04
:1011B00085E692E00E94F802882309F48FCEC6CE1D
:1011C000052E97FB1EF400940E94F70857FD07D0E8
:1011D0000E94FF0807FC03D04EF40C94F7085095CA
:1011E0004095309521953F4F4F4F5F4F0895909513
:1011F0008095709561957F4F8F4F9F4F0895A1E225
:101200001A2EAA1BBB1BFD010DC0AA1FBB1FEE1F80
:10121000FF1FA217B307E407F50720F0A21BB30BCB
:10122000E40BF50B661F771F881F991F1A9469F747
:1012300060957095809590959B01AC01BD01CF01A3
:101240000895A29FB001B39FC001A39F700D811D9F
:101250001124911DB29F700D811D1124911D0895BF
:101260000E9437096894B1110C94C60908950E9430
:10127000AB0988F09F5798F0B92F9927B751B0F074
:10128000E1F0660F771F881F991F1AF0BA95C9F70A
:1012900014C0B13091F00E94C509B1E008950C94DA
:1012A000C509672F782F8827B85F39F0B93FCCF38D
:1012B000869577956795B395D9F73EF49095809587
:1012C000709561957F4F8F4F9F4F0895E89409C0A7
:1012D00097FB3EF490958095709561957F4F8F4F69
:1012E0009F4F9923A9F0F92F96E9BB279395F6957F
:1012F000879577956795B795F111F8CFFAF4BB0FFD
:1013000011F460FF1BC06F5F7F4F8F4F9F4F16C060
:10131000882311F096E911C0772321F09EE8872FEA
:10132000762F05C0662371F096E8862F70E060E0A6
:101330002AF09A95660F771F881FDAF7880F96951F
:10134000879597F9089557FD9058440F551F59F008
:101350005F3F71F04795880F97FB991F61F09F3FA2
:1013600079F087950895121613061406551FF2CFCB
:101370004695F1DF08C0161617061806991FF1CF1B
:1013800086957105610508940895E894BB27662742
:101390007727CB0197F908950E943E0A08F48FEF52
:1013A00008950E94E4090C94790A0E946B0A38F0AF
:1013B0000E94720A20F0952311F00C94620A0C949A
:1013C000680A11240C94C6090E94A30970F3959F22
:1013D000C1F3950F50E0551F629FF001729FBB272C
:1013E000F00DB11D639FAA27F00DB11DAA1F649FC8
:1013F0006627B00DA11D661F829F2227B00DA11D7B
:10140000621F739FB00DA11D621F839FA00D611D00
:10141000221F749F3327A00D611D231F849F600D21
:10142000211D822F762F6A2F11249F5750409AF04A
:10143000F1F088234AF0EE0FFF1FBB1F661F771FD6
:10144000881F91505040A9F79E3F510580F00C94A1
:10145000620A0C94C6095F3FE4F3983ED4F3869584
:1014600077956795B795F795E7959F5FC1F7FE2B41
:10147000880F911D9695879597F90895990F000803
:10148000550FAA0BE0E8FEEF16161706E807F90756
:10149000C0F012161306E407F50798F0621B730BF1
:1014A000840B950B39F40A2661F0232B242B252B72
:1014B00021F408950A2609F4A140A6958FEF811D15
:1014C000811D089597F99F6780E870E060E00895B6
:1014D0009FEF80EC089500240A941616170618064C
:1014E0000906089500240A94121613061406050628
:1014F0000895092E0394000C11F4882352F0BB0FB9
:1015000040F4BF2B11F460FF04C06F5F7F4F8F4F1B
:101510009F4F08950E942109B7FF0895821B930BE6
:101520000895EE0FFF1F0590F491E02D0994F894B3
:10153000FFCF000000006601C600F300B3012401E4
:10154000020116010D0A00696E6375696500646524
:1015500073637569650070616E6F75007374617295
:101560007400686F6C640034206D696E0036206D05
:0A157000696E0038206D696E0000FE
:107E0000112484B714BE81FFF0D085E080938100F7
:107E100082E08093C00088E18093C10086E0809377
:107E2000C20080E18093C4008EE0C9D0259A86E02C
:107E300020E33CEF91E0309385002093840096BBD3
:107E4000B09BFECF1D9AA8958150A9F7CC24DD24C4
:107E500088248394B5E0AB2EA1E19A2EF3E0BF2EE7
:107E6000A2D0813461F49FD0082FAFD0023811F036
:107E7000013811F484E001C083E08DD089C08234E0
:107E800011F484E103C0853419F485E0A6D080C0E4
:107E9000853579F488D0E82EFF2485D0082F10E0AE
:107EA000102F00270E291F29000F111F8ED06801E7
:107EB0006FC0863521F484E090D080E0DECF843638
:107EC00009F040C070D06FD0082F6DD080E0C81688
:107ED00080E7D80618F4F601B7BEE895C0E0D1E017
:107EE00062D089930C17E1F7F0E0CF16F0E7DF06D8
:107EF00018F0F601B7BEE89568D007B600FCFDCFD4
:107F0000A601A0E0B1E02C9130E011968C91119780
:107F100090E0982F8827822B932B1296FA010C0160
:107F200087BEE89511244E5F5F4FF1E0A038BF0790
:107F300051F7F601A7BEE89507B600FCFDCF97BE46
:107F4000E89526C08437B1F42ED02DD0F82E2BD052
:107F50003CD0F601EF2C8F010F5F1F4F84911BD097
:107F6000EA94F801C1F70894C11CD11CFA94CF0C13
:107F7000D11C0EC0853739F428D08EE10CD085E9AC
:107F80000AD08FE07ACF813511F488E018D01DD067
:107F900080E101D065CF982F8091C00085FFFCCF94
:107FA0009093C60008958091C00087FFFCCF809118
:107FB000C00084FD01C0A8958091C6000895E0E648
:107FC000F0E098E1908380830895EDDF803219F02E
:107FD00088E0F5DFFFCF84E1DECF1F93182FE3DFCA
:107FE0001150E9F7F2DF1F91089580E0E8DFEE27F6
:047FF000FF270994CA
:027FFE00040479
:00000001FF
