:020000040000FA
:1000000040C064C063C062C061C060C05FC05EC009
:100010005DC019C35BC086C360C358C057C056C01B
:1000200055C054C053C000000000370034003100F8
:100030000000000038003500320000000000000021
:1000400000000003040600000000000000000102A0
:100050000408102040800102040810200102040856
:1000600010200000000036003300300004040404B7
:100070000404040402020202020203030303030352
:10008000000411241FBECFE5D4E0DEBFCDBF10E0D9
:10009000A0E6B0E0E6E8FCE002C005900D92A439CD
:1000A000B107D9F722E0A4E9B0E001C01D92A53064
:1000B000B207E1F710E0C1E4D0E003C02197FE01F0
:1000C000DAD5C034D107D1F700D4DBC599CF90E0A1
:1000D000FC01E65CFF4F3491FC01E25BFF4F249191
:1000E000FC01E459FF4FE491EE23E1F0332349F0A2
:1000F0003430C9F03630D1F0333019F48FB58F7702
:100100008FBDF0E0EE0FFF1FE05DFF4FA591B491B2
:100110008FB7F89461110EC09C91E22FE095E9230E
:10012000EC938FBF08958FB58F7DEACF85B58F7D16
:1001300085BDE7CFEC91E22BF3CFAF92BF92CF9288
:10014000DF92EF92FF920F931F93CF93DF936C0197
:100150007B018B01040F151FEB015E01AE18BF0878
:10016000C017D10759F06991D601ED91FC9101902A
:10017000F081E02DC6010995892B79F7C501DF9142
:10018000CF911F910F91FF90EF90DF90CF90BF9094
:10019000AF900895FC01538D448D252F30E0842FBE
:1001A00090E0821B930B541710F0CF96089501979F
:1001B0000895FC01918D828D981761F0A28DAE0F8C
:1001C000BF2FB11D5D968C91928D9F5F9F73928F13
:1001D00090E008958FEF9FEF0895FC01918D828D3F
:1001E000981731F0828DE80FF11D858D90E008950C
:1001F0008FEF9FEF0895FC01918D228D892F90E064
:10020000805C9F4F821B91098F739927089586EA1E
:1002100090E0F1DF21E0892B09F420E0822F08959E
:1002200080E090E0892B19F0F2DF8111E9CE08958A
:10023000FC01A48DA80FB92FB11DA35ABF4F2C915B
:10024000848D90E001968F739927848FA689B78952
:100250002C93A089B1898C9182748C93938D848D19
:10026000981306C00288F389E02D80818F7D8083FA
:100270000895EF92FF920F931F93CF93DF93EC01BA
:1002800081E0888F9B8D8C8D981319C0E889F9893E
:10029000808185FF14C09FB7F894EE89FF89608341
:1002A000E889F9898081827480839FBF81E090E032
:1002B000DF91CF911F910F91FF90EF900895F62E4F
:1002C0000B8D10E00F5F1F4F0F731127E02E8C8DE9
:1002D0008E110BC00FB607FCFACFE889F98980812F
:1002E00085FFF5CFCE01A4DFF2CFEB8DEC0FFD2F14
:1002F000F11DE35AFF4FF0829FB7F8940B8FEA8904
:10030000FB8980818062D0CFCF93DF93EC01888D11
:100310008823B1F0AA89BB89E889F9898C9185FD88
:1003200003C0808186FD0CC00FB607FCF7CF8C910F
:1003300085FFF2CF808185FFEDCFCE0179DFEACF57
:10034000DF91CF9108958F929F92AF92BF92CF92FB
:10035000DF92EF92FF920F931F93FC01818182FD48
:1003600014C085FD12C0A489B5892C91368981FB02
:10037000992790F983FB882780F98927922F932367
:1003800021E009F020E08227828B8FB7F89440911A
:10039000A2005091A3006091A4007091A5008FBFAE
:1003A000928923898081992309F479C0211177C02A
:1003B00080FD5BC08160808346875787608B718B2F
:1003C0008389882319F1992309F10581168130E089
:1003D00020E0C684D784E088F1884A015B018C184C
:1003E0009D08AE08BF0875016401C016D106E2067B
:1003F000F30660F0808181FD09C0238525878A642A
:100400008F77808346875787608B718B068517852A
:1004100020893189401B510B620B730B07811085BA
:1004200030E020E0401751076207730750F08385E2
:10043000882339F0911105C08487138680818460F8
:100440008083818186FF06C0148690819B7F908384
:100450008F7B81831F910F91FF90EF90DF90CF9062
:10046000BF90AF909F908F90089506851785208943
:1004700031896A017B01C01AD10AE20AF30A0381B9
:10048000148130E020E0C016D106E206F30608F43D
:10049000BDCF21E0238B80628068808391CF8E7FE7
:1004A000808391118DCF222309F4B0CF138A81FD6F
:1004B00003C083858F5F838780818D7F8061808388
:1004C00046875787608B718B86FF04C0148613861E
:1004D0008F7B8083808187FF99CF8F778083818115
:1004E000816081836DCFCF93DF93EC01898184FF9D
:1004F00002C0CE0128DF988195FB882780F995FFFF
:1005000002C09F7D9883DF91CF9108950F931F9331
:10051000CF93DF93EC018B018F81811114C02FB732
:10052000F8948091A2009091A300A091A400B091B2
:10053000A5002FBF89839A83AB83BC8381E08F831F
:1005400061E08881C4DD8F818823F1F08FB7F89452
:100550004091A2005091A3006091A4007091A50069
:100560008FBF89819A81AB81BC81481B590B6A0B73
:100570007B0B30E020E0401751076207730720F043
:100580001F8260E08881A3DD8F8190E0DF91CF91B1
:100590001F910F910895CF93DF93EC01862F2CE3E9
:1005A00030E03C832B8324EF31E03E832D8338877A
:1005B0002F8320E931E03A8729871B861C861D8618
:1005C0001E861F86188A198A1A8A1B8A6A8399814D
:1005D0009F7D977F998362E0D7D08A8190E0FC016C
:1005E000E459FF4FE491F0E0EE0FFF1FEE59FF4F8B
:1005F000259134913D8B2C8BFC01E25BFF4FE49104
:10060000EE8B89818B7E8D7F8983DF91CF910895D9
:10061000CF93DF93FC0101900020E9F73197AF0100
:10062000481B590BBC0186EA90E087DDEC0142E0F3
:1006300050E066E770E086EA90E07FDD8C0F9D1F5A
:10064000DF91CF9108951F920F920FB60F92112450
:100650002F933F938F939F93AF93BF938091A2006B
:100660009091A300A091A400B091A5003091A100A9
:1006700023E0230F2D3758F50196A11DB11D2093BE
:10068000A1008093A2009093A300A093A400B09334
:10069000A50080919D0090919E00A0919F00B09137
:1006A000A0000196A11DB11D80939D0090939E0016
:1006B000A0939F00B093A000BF91AF919F918F91A5
:1006C0003F912F910F900FBE0F901F90189526E825
:1006D000230F0296A11DB11DD2CF1F920F920FB60C
:1006E0000F9211242F933F934F935F936F937F93B8
:1006F0008F939F93AF93BF93EF93FF9386EA90E01E
:1007000097DDFF91EF91BF91AF919F918F917F9175
:100710006F915F914F913F912F910F900FBE0F906E
:100720001F9018951F920F920FB60F9211242F93BE
:100730008F939F93EF93FF93E091B600F091B700F2
:100740008081E091BC00F091BD0082FD1BC09081D2
:100750008091BF008F5F8F732091C000821741F09E
:10076000E091BF00F0E0EA55FF4F958F8093BF0006
:10077000FF91EF919F918F912F910F900FBE0F904E
:100780001F9018958081F4CFCF93DF9390E0FC0108
:10079000E25BFF4F249184599F4FFC018491882391
:1007A000C9F090E0880F991FFC01EA5DFF4FA59109
:1007B000B491FC01E05DFF4FC591D49161110DC072
:1007C0009FB7F8948C91209582238C93888128235D
:1007D00028839FBFDF91CF910895623051F49FB776
:1007E000F8943C91822F809583238C93E8812E2B63
:1007F000EFCF8FB7F894EC912E2B2C938FBFEACFCD
:10080000E6EAF0E01382128288EE93E0A0E0B0E026
:1008100084839583A683B78388E690E09183808361
:1008200080E490E09587848729E230E03787268747
:100830002BE230E0318B208B2AE230E0338B228BAD
:10084000958B848B8CE290E0978B868B118E128E29
:10085000138E148E6AE08EEE91E09DDE6BE087EDE4
:1008600091E099DE6CE080EC91E095DE6DE089EA44
:1008700091E091DE62E182E991E08DDE61E18BE75A
:1008800091E089DE85E08093730161E07DDF88E09F
:1008900080936B0161E078DF82E08093630161E027
:1008A00073DF83E080935B0161E06EDF84E080931F
:1008B000530161E069DF87E080934B0161E064DF11
:1008C00086E08093430161E05FCF789483B78260D4
:1008D00083BF83B7816083BF89B7816089BF1EBC36
:1008E0008EB582608EBD8EB581608EBD8FB5816004
:1008F0008FBD85B5846085BD85B5806485BD329A20
:10090000319A309A379A1AB8E091B600F091B70050
:1009100082E08083E091B200F091B3001082E09118
:10092000B400F091B5008FEC80831092BE00E0918E
:10093000BA00F091BB0086E88083E091B800F091A6
:10094000B900808180618083E091B800F091B900A6
:10095000808188608083E091B800F091B900808147
:1009600080688083E091B800F091B90080818F7D2C
:10097000808300E010E080EDE82E87E0F82EC8E9E3
:10098000DAE38EEE91E0DFDC80EC91E0DCDC87EDF9
:1009900091E0D9DC89EA91E0D6DC82E991E0D3DC10
:1009A0008BE791E0D0DC80919C00882359F068E5CA
:1009B00072E08BE591E0AADD21E0892B09F420E0CB
:1009C00020939C0080919B00882359F068E572E099
:1009D00083E591E09BDD21E0892B09F420E0209361
:1009E0009B0080919A00882369F060919800709133
:1009F000990083E691E08ADD21E0892B09F420E06B
:100A000020939A0080919700882359F060E177E263
:100A10008BE491E07BDD21E0892B09F420E0209339
:100A2000970080919600882359F068EE73E08BE67A
:100A300091E06CDD21E0892B09F420E02093960001
:100A400080919500882369F0609162007091630045
:100A500083E491E05BDD21E0892B09F420E0209321
:100A6000950080919400882369F0609160007091F6
:100A7000610083E791E04ADD21E0892B09F420E061
:100A8000209394008EEE91E02EDD882399F189E782
:100A900090E0BEDD68E572E08BE591E037DD21E0B6
:100AA000892B09F420E020939C00F0929900E092B9
:100AB000980060ED77E083E691E028DD21E0892B66
:100AC00009F420E020939A0070E060E083E491E074
:100AD0001DDD21E0892B09F420E02093950070E0D2
:100AE00060E083E791E012DD21E0892B09F420E04A
:100AF0002093940080EC91E0F6DC8823E9F180E813
:100B000090E086DD68E572E083E591E0FFDC21E0BE
:100B1000892B09F420E020939B0088EE93E09093CA
:100B200099008093980068EE73E083E691E0EEDC34
:100B300021E0892B09F420E020939A00D0936300F0
:100B4000C093620068E97AE383E491E0DFDC21E0AE
:100B5000892B09F420E020939500D0936100C09385
:100B6000600068E97AE383E791E0D0DC21E0892B3B
:100B700009F420E02093940087ED91E0B4DC882311
:100B800049F188E890E044DD80919700882309F4DA
:100B90004DC070E060E083E491E0B8DC21E0892B97
:100BA00009F420E02093950070E060E083E791E095
:100BB000ADDC21E0892B09F420E02093940070E063
:100BC00060E08BE491E0A2DC21E0892B09F420E0D5
:100BD0002093970089EA91E086DC8823E9F08EE88B
:100BE00090E016DD809197008823B1F08091930109
:100BF00084FF03C082E991E0A6DB8091A4018823F1
:100C000059F068EE73E08BE691E080DC21E0892BFF
:100C100009F420E0209396000115110509F4B1CEE6
:100C2000F6DA882309F4ADCEEBD9ABCE80E197E2BA
:100C3000909363008093620060E177E283E491E047
:100C400065DC21E0892B09F420E02093950080E108
:100C500097E2909361008093600060E177E283E720
:100C600091E054DC21E0892B09F420E020939400EA
:100C700060E177E2A6CFEE0FFF1F0590F491E02D23
:100C80000994F894FFCFE803E8030000000039015D
:100C90009D00CA008401FB00D900ED000D0A006927
:100CA0006E6375696500646573637569650070617D
:0A0CB0006E6F7500737461727400BA
:101C000012C02BC02AC029C028C027C026C025C0AA
:101C100024C023C022C021C020C01FC01EC01DC0C0
:101C20001CC01BC01AC011241FBECFE5D4E0DEBF0C
:101C3000CDBF10E0A0E6B0E0E8EEFFE102C0059005
:101C40000D92A236B107D9F711E0A2E6B0E001C0CB
:101C50001D92AA36B107E1F74FC0D2CFEF92FF92A3
:101C60000F931F93EE24FF24870113C00894E11CF7
:101C7000F11C011D111D81E0E81682E1F8068AE7DA
:101C8000080780E0180728F0E0916200F0916300F7
:101C900009955F9BEBCF8CB1992787FD90951F919C
:101CA0000F91FF90EF9008955D9BFECF8CB9089542
:101CB000D5DF803221F484E1F7DF80E1F5DF08959C
:101CC0001F93182FCBDF803231F484E1EDDF812FB9
:101CD000EBDF80E1E9DF1F9108951F93CF93DF933E
:101CE000182FC0E0D0E002C0B9DF2196C117E0F3A1
:101CF000DF91CF911F910895CFE5D4E0DEBFCDBF36
:101D0000000010BC83E389B988E18AB986E880BD08
:101D1000BD9A1092680130E2E0E0F0E02FE088B375
:101D2000832788BBCF010197F1F7215027FFF7CF19
:101D300020E12093680192DF803381F1813399F4AF
:101D40008DDF8032C1F784E1AFDF81E4ADDF86E56E
:101D5000ABDF82E5A9DF80E2A7DF89E4A5DF83E5C9
:101D6000A3DF80E5C7C0803429F478DF8638B0F07F
:101D700075DF14C0813471F471DF803811F482E0B2
:101D80001DC1813811F481E019C1823809F015C1F3
:101D900082E114C1823421F484E19FDF89DFCBCF5B
:101DA000853411F485E0F9CF8035C1F38135B1F385
:101DB0008235A1F3853539F451DF809364004EDF1D
:101DC00080936500EBCF863519F484E086DFF5C09B
:101DD000843609F093C042DF809367013FDF809330
:101DE0006601809169018E7F8093690137DF8534B8
:101DF00029F480916901816080936901C0E0D0E09D
:101E000006E610E005C02ADFF80181938F012196D4
:101E10008091660190916701C817D907A0F31EDF72
:101E2000803209F088CF8091690180FF1FC020E0D7
:101E300030E0E6E6F0E012C0A0916400B0916500E9
:101E40008191082EC5D08091640090916500019623
:101E500090936500809364002F5F3F4F80916601EF
:101E6000909167012817390738F343C0F894E19936
:101E7000FECF1127E0916400F0916500EE0FFF1F87
:101E8000C6E6D0E0809166019091670180FF01C0B5
:101E90000196103051F422D003E000935700E895EA
:101EA0001DD001E100935700E8950990199016D0D4
:101EB00001E000935700E8951395103258F0112770
:101EC0000DD005E000935700E89508D001E100939C
:101ED0005700E8953296029739F0DBCF0091570012
:101EE00001700130D9F30895103011F00296E7CF58
:101EF000112484E1D9DE80E1D7DE1DCF843709F0DB
:101F00004BC0ACDE80936701A9DE80936601A6DE3C
:101F100090916901853421F49160909369010DC01D
:101F20009E7F909369018091640090916500880F75
:101F3000991F909365008093640090DE803209F0D1
:101F4000FACE84E1B1DEC0E0D0E01EC0809169012C
:101F500080FF07C0A0916400B091650031D0802D52
:101F600008C081FD07C0E0916400F0916500E49134
:101F70008E2F9ADE80916400909165000196909377
:101F800065008093640021968091660190916701BD
:101F9000C817D907D8F2AFCF853761F45FDE80323A
:101FA00009F0C9CE84E180DE8EE17EDE83E97CDE4D
:101FB00087E0A0CF863709F0BECE80E081DEBBCEC1
:101FC000E199FECFBFBBAEBBE09A11960DB208956A
:101FD000E199FECFBFBBAEBB0DBA11960FB6F89418
:0A1FE000E29AE19A0FBE0895800016
:00000001FF
