:1000000040C064C063C062C061C060C05FC05EC009
:100010005DC04CC35BC0B9C393C358C057C056C082
:1000200055C054C053C000000000370034003100F8
:100030000000000038003500320000000000000021
:1000400000000003040600000000000000000102A0
:100050000408102040800102040810200102040856
:1000600010200000000036003300300004040404B7
:100070000404040402020202020203030303030352
:10008000330411241FBECFE5D4E0DEBFCDBF10E0A6
:10009000A0E6B0E0E8E0F3E102C005900D92A83AD6
:1000A000B107D9F722E0A8EAB0E001C01D92AB3257
:1000B000B207E1F710E0C1E4D0E003C02197FE01F0
:1000C0001BD9C034D107D1F751D41CC999CF85E4CD
:1000D00087B9369A3699FECFA4B1B5B128EE33E090
:1000E00005D92FEF33E040E050E06CD7293E83E0A4
:1000F000380714F028EE33E037FF02C030E020E08C
:10010000B901330F880B990BDAD728E431EE4AEFA7
:100110005EE33DD820E030E040E450E438D89CD79E
:10012000CB01089590E0FC01E65CFF4F3491FC01A7
:10013000E25BFF4F2491FC01E459FF4FE491EE2371
:10014000E1F0332349F03430C9F03630D1F03330A8
:1001500019F48FB58F778FBDF0E0EE0FFF1FE05DD4
:10016000FF4FA591B4918FB7F89461110EC09C9187
:10017000E22FE095E923EC938FBF08958FB58F7D33
:10018000EACF85B58F7D85BDE7CFEC91E22BF3CF2C
:100190002FB7F8946091BE007091BF008091C000AD
:1001A0009091C1002FBF0895AF92BF92CF92DF927E
:1001B000EF92FF920F931F93CF93DF936C017B011C
:1001C0008B01040F151FEB015E01AE18BF08C017AD
:1001D000D10759F06991D601ED91FC910190F08120
:1001E000E02DC6010995892B79F7C501DF91CF91E3
:1001F0001F910F91FF90EF90DF90CF90BF90AF9045
:100200000895FC01538D448D252F30E0842F90E01C
:10021000821B930B541710F0CF9608950197089501
:10022000FC01918D828D981761F0A28DAE0FBF2FCA
:10023000B11D5D968C91928D9F5F9F73928F90E020
:1002400008958FEF9FEF0895FC01918D828D98178F
:1002500031F0828DE80FF11D858D90E008958FEFCC
:100260009FEF0895FC01918D228D892F90E0805C95
:100270009F4F821B91098F739927089582EC90E01C
:10028000F1DF21E0892B09F420E0822F089580E03E
:1002900090E0892B19F0F2DF8111B2CE0895FC01B4
:1002A000A48DA80FB92FB11DA35ABF4F2C91848DD7
:1002B00090E001968F739927848FA689B7892C9334
:1002C000A089B1898C9182748C93938D848D9813BD
:1002D00006C00288F389E02D80818F7D8083089598
:1002E000EF92FF920F931F93CF93DF93EC0181E086
:1002F000888F9B8D8C8D981319C0E889F98980812E
:1003000085FF14C09FB7F894EE89FF896083E88960
:10031000F9898081827480839FBF81E090E0DF91C2
:10032000CF911F910F91FF90EF900895F62E0B8DB6
:1003300010E00F5F1F4F0F731127E02E8C8D8E1171
:100340000BC00FB607FCFACFE889F989808185FFD9
:10035000F5CFCE01A4DFF2CFEB8DEC0FFD2FF11D19
:10036000E35AFF4FF0829FB7F8940B8FEA89FB891D
:1003700080818062D0CFCF93DF93EC01888D88237A
:10038000B1F0AA89BB89E889F9898C9185FD03C000
:10039000808186FD0CC00FB607FCF7CF8C9185FFDE
:1003A000F2CF808185FFEDCFCE0179DFEACFDF91FB
:1003B000CF9108958F929F92AF92BF92CF92DF928A
:1003C000EF92FF920F931F93CF93DF93EC018981FC
:1003D00082FD14C085FD12C0EC89FD8920813E8913
:1003E00081FB992790F983FB882780F98927922F31
:1003F000932321E009F020E082278A8BC9DEAB013C
:10040000BC019A892B898881992309F47BC0211129
:1004100079C080FD5DC0816088834E875F87688B6F
:10042000798B8B89882319F1992309F10D811E811C
:1004300030E020E0CE84DF84E888F9884A015B015F
:100440008C189D08AE08BF0875016401C016D1065E
:10045000E206F30660F0888181FD09C02B852D87B7
:100460008A648F7788834E875F87688B798B0E8548
:100470001F8528893989401B510B620B730B0F8133
:10048000188530E020E0401751076207730750F0ED
:100490008B85882339F0911105C08C871B86888154
:1004A00084608883898186FF06C01C8698819B7F33
:1004B00098838F7B8983DF91CF911F910F91FF905C
:1004C000EF90DF90CF90BF90AF909F908F90089566
:1004D0000E851F85288939896A017B01C01AD10AD6
:1004E000E20AF30A0B811C8130E020E0C016D1063D
:1004F000E206F30608F4BBCF21E02B8B8062806814
:1005000088838FCF8E7F888391118BCF222309F42C
:10051000AECF1B8A81FD03C08B858F5F8B8788815F
:100520008D7F806188834E875F87688B798B86FF9C
:1005300004C01C861B868F7B8883888187FF97CFAA
:100540008F7788838981816089836BCFCF93DF9395
:10055000EC01898184FF02C0CE012CDF988195FBDC
:10056000882780F995FF02C09F7D9883DF91CF9106
:100570000895CF92DF92EF92FF920F931F93CF9344
:10058000DF93EC018B01F42E442329F001DE698313
:100590007A838B839C838F8181110FC0FF2069F048
:1005A0000115110551F0F4DD69837A838B839C83F7
:1005B00081E08F8361E08881B5DD8F818823B1F090
:1005C000E7DDC980DA80EB80FC80AB01BC014C190F
:1005D0005D096E097F0930E020E04017510762078E
:1005E000730720F01F8260E088819CDD8F8190E09E
:1005F000DF91CF911F910F91FF90EF90DF90CF90FF
:100600000895CF93DF93EC01862F2CE330E03C83F9
:100610002B8324EF31E03E832D8338872F8320E91D
:1006200031E03A8729871B861C861D861E861F8619
:10063000188A198A1A8A1B8A6A8399819F7D977FF3
:10064000998362E0D4D08A8190E0FC01E459FF4FA5
:10065000E491F0E0EE0FFF1FEE59FF4F259134912A
:100660003D8B2C8BFC01E25BFF4FE491EE8B89818B
:100670008B7E8D7F8983DF91CF910895FC0101905E
:100680000020E9F73197AF01481B590BBC0182EC00
:1006900090E08ACDCF93DF93F1DFEC0182E790E029
:1006A000EDDF8C0F9D1FDF91CF9108951F920F9268
:1006B0000FB60F9211242F933F938F939F93AF9375
:1006C000BF938091BE009091BF00A091C000B091F7
:1006D000C1003091BD0023E0230F2D3758F501965E
:1006E000A11DB11D2093BD008093BE009093BF005B
:1006F000A093C000B093C1008091B9009091BA005E
:10070000A091BB00B091BC000196A11DB11D8093CA
:10071000B9009093BA00A093BB00B093BC00BF9106
:10072000AF919F918F913F912F910F900FBE0F909E
:100730001F90189526E8230F0296A11DB11DD2CF58
:100740001F920F920FB60F9211242F933F934F9346
:100750005F936F937F938F939F93AF93BF93EF9329
:10076000FF9382EC90E09BDDFF91EF91BF91AF9101
:100770009F918F917F916F915F914F913F912F91B9
:100780000F900FBE0F901F9018951F920F920FB6EB
:100790000F9211242F938F939F93EF93FF93E091E8
:1007A000D200F091D3008081E091D800F091D9007F
:1007B00082FD1BC090818091DB008F5F8F73209141
:1007C000DC00821741F0E091DB00F0E0EE53FF4FD8
:1007D000958F8093DB00FF91EF919F918F912F91E7
:1007E0000F900FBE0F901F9018958081F4CFCF937C
:1007F000DF9390E0FC01E25BFF4F249184599F4F0F
:10080000FC0184918823C9F090E0880F991FFC01B6
:10081000EA5DFF4FA591B491FC01E05DFF4FC591EA
:10082000D49161110DC09FB7F8948C9120958223CB
:100830008C938881282328839FBFDF91CF910895CF
:10084000623051F49FB7F8943C91822F80958323B6
:100850008C93E8812E2BEFCF8FB7F894EC912E2B51
:100860002C938FBFEACFE2ECF0E01382128288EE85
:1008700093E0A0E0B0E084839583A683B78384E609
:1008800090E09183808380E490E09587848729E2DB
:1008900030E0378726872BE230E0318B208B2AE24D
:1008A00030E0338B228B958B848B8CE290E0978B9E
:1008B000868B118E128E138E148E8CE291E09093A3
:1008C0002A028093290280E395E79093280280937F
:1008D000270280E69AEEA0E0B0E080932302909396
:1008E0002402A0932502B093260284EF91E0909316
:1008F0002202809321026AE08AE092E082DE6BE0CD
:1009000083EF91E07EDE6CE08CED91E07ADE6DE0CD
:1009100085EC91E076DE62E18EEA91E072DE61E1E3
:1009200087E991E06EDE85E080938F0161E05FDF13
:1009300088E08093870161E05ADF82E080937F0145
:1009400061E055DF83E08093770161E050DF84E070
:1009500080936F0161E04BDF87E08093670161E086
:1009600046DF86E080935F0161E041CFCF93DF9364
:10097000CDB7DEB7A1970FB6F894DEBF0FBECDBFDF
:10098000789483B7826083BF83B7816083BF89B760
:10099000816089BF1EBC8EB582608EBD8EB58160C0
:1009A0008EBD8FB581608FBD85B5846085BD85B5F1
:1009B000806485BD329A319A309A379A1AB888EC99
:1009C00090E0909312028093110288EE93E090934E
:1009D000CB018093CA01E091D200F091D30082E074
:1009E0008083E091CE00F091CF001082E091D000A2
:1009F000F091D1008FEC80831092DA00E091D60064
:100A0000F091D70086E88083E091D400F091D50082
:100A1000808180618083E091D400F091D500808155
:100A200088608083E091D400F091D5008081806857
:100A30008083E091D400F091D50080818F7D808308
:100A40004AE0442E512C612C712C58EEA52E53E017
:100A5000B52E68EB262E6BE0362E78E5872E72E0F9
:100A6000972E8AE092E0A6DC8CED91E0A3DC83EF88
:100A700091E0A0DC85EC91E09DDC8EEA91E09ADCCF
:100A800087E991E097DC0091290210912A0240E069
:100A9000B80187E791E06DDD40E0B8018FE691E0B5
:100AA00068DD6091B7007091B80040E08FE791E099
:100AB00060DD609123027091240240E087E691E0BE
:100AC00058DD609121027091220240E087E891E0B8
:100AD00050DD6091B3007091B40040E08FE591E08B
:100AE00048DD6091AF007091B00040E08FE891E088
:100AF00040DD80910B0284FF03C08AE092E05ADC63
:100B000080910B0280FF24C08E7F80930B0285E7CB
:100B100090E0C0DD6091290270912A0241E087E7F0
:100B200091E027DDB092B800A092B70041E068EEF6
:100B300073E08FE791E01DDD40E070E060E08FE55D
:100B400091E017DD40E070E060E08FE891E011DDBA
:100B500080910B0284FF03C08AE092E02BDC80913D
:100B60000A0286FF31C06091290270912A0241E099
:100B700087E791E0FEDCB092B800A092B70041E0B8
:100B800068EE73E08FE791E0F4DC809127029091AA
:100B900028022EE1289FB001299F700D1124CB015E
:100BA000B0E0A0E08093B3009093B400A093B500B0
:100BB000B093B60041E08FE591E0DBDC40E070E00F
:100BC00060E08FE891E0D5DC8CED91E0BFDC88231C
:100BD000F1F18CE790E05EDD6091290270912A02CC
:100BE00041E08FE691E0C5DC84EF91E09093B8009E
:100BF0008093B70041E064EF71E08FE791E0B9DCEA
:100C00008091270290912802EEE1E89F8001E99F00
:100C1000100D11246801F12CE12CC092B300D09288
:100C2000B400E092B500F092B60041E0B8018FE563
:100C300091E09FDCC092AF00D092B000E092B10092
:100C4000F092B20041E0B8018FE891E092DC83EFCE
:100C500091E07CDC882389F184E890E01BDDC09082
:100C60002302D0902402E0902502F090260240E07A
:100C7000B60187E691E07DDC892B09F059C18AEF46
:100C800090E09093B8008093B70041E06AEF70E085
:100C90008FE791E06EDCC092AF00D092B000E0929E
:100CA000B100F092B20041E0B6018FE891E061DC62
:100CB00041E0B60187E691E05CDC85EC91E046DC42
:100CC000882339F1609123027091240240E087E685
:100CD00091E04FDC892BE9F08091AE00811119C0C1
:100CE0008091AF0184FF03C08EEA91E063DB8091C5
:100CF000C001882371F08AE890E0CCDC6091210289
:100D00007091220241E087E891E033DC81E080933A
:100D1000AE008091C60184FF03C085EC91E04ADB00
:100D20008091C50186FF52C0609123027091240218
:100D300040E087E691E01DDC892B09F047C080E99F
:100D400090E0A8DC3092B8002092B70041E068EB58
:100D50007BE08FE791E00DDC1BDA6B017C0118DA98
:100D60006C197D098E099F09683B7B4081059105BF
:100D700068F58AE092E01EDB8CED91E01BDB83EFEF
:100D800091E018DB85EC91E015DB8AE092E0DEDB98
:100D9000882309F4D9C08091270290912802880FF6
:100DA000991F880F991FB0E0A0E0809323029093D1
:100DB0002402A0932502B093260285E990E06ADC24
:100DC00040E070E060E08FE791E0D3DB6091B3003A
:100DD0007091B40040E08FE591E0CBDB892BE9F125
:100DE000D7D90091AA001091AB002091AC003091AE
:100DF000AD00601B710B820B930B69397A4381053F
:100E0000910558F164D98C019093A9008093A800B2
:100E1000BFD96093AA007093AB008093AC0090930D
:100E2000AD0006341540CCF0809127029091280245
:100E3000EEE1E89FB001E99F700D1124CB01B0E015
:100E4000A0E08093B3009093B400A093B500B0935A
:100E5000B60041E08FE591E08CDB60912302709158
:100E6000240240E087E691E084DB892B09F455C039
:100E70008091AE00882309F450C08AD90091AA005D
:100E80001091AB002091AC003091AD00601B710B54
:100E9000820B930B12D120E030E04AE753E473D188
:100EA0001816DCF514D98C019093A9008093A80042
:100EB0006FD96093AA007093AB008093AC009093BD
:100EC000AD000634F5E01F0744F19801110F440B03
:100ED000550B19A27E0181E2E80EF11CCA01B9018D
:100EE000A30192018BD0605DF70162937F01211510
:100EF00031054105510591F7309711F0CF01BEDB67
:100F000082E790E0BBDB9092B8008092B70041E0AE
:100F100068E572E08FE791E02CDB80E090E0892BC0
:100F200009F49FCDABD9882309F49BCD69D899CD1D
:100F30001092AE0040E070E060E08FE891E019DBD5
:100F400040E070E060E0B6CE83EF91E0FFDA882306
:100F5000B9F02091270230912802F6E0F29FC001FB
:100F6000F39F900D1124B0E0A0E0809323029093B2
:100F70002402A0932502B09326028BE990E01FCFB4
:100F80008CED91E0E3DA8823B1F080912702909113
:100F9000280223E0880F991F2A95E1F7B0E0A0E02E
:100FA0008093230290932402A0932502B0932602FB
:100FB00081EA90E004CF85EC91E0C8DA882309F457
:100FC000CECEFECE052E97FB16F400940FD057FD23
:100FD00005D014D007FC02D046F408C050954095C7
:100FE000309521953F4F4F4F5F4F089590958095D5
:100FF000709561957F4F8F4F9F4F0895A1E21A2EF4
:10100000AA1BBB1BFD010DC0AA1FBB1FEE1FFF1FAC
:10101000A217B307E407F50720F0A21BB30BE40BFC
:10102000F50B661F771F881F991F1A9469F7609543
:101030007095809590959B01AC01BD01CF010895FD
:10104000A29FB001B39FC001A39F01D0B29F700DBA
:10105000811D1124911D089504D06894B1118DC093
:10106000089570D088F09F5790F0B92F9927B75105
:10107000A0F0D1F0660F771F881F991F1AF0BA955C
:10108000C9F712C0B13081F077D0B1E0089574C0D3
:10109000672F782F8827B85F39F0B93FCCF3869552
:1010A00077956795B395D9F73EF4909580957095AF
:1010B00061957F4F8F4F9F4F0895E89409C097FB2C
:1010C0003EF490958095709561957F4F8F4F9F4F1F
:1010D0009923A9F0F92F96E9BB279395F695879563
:1010E00077956795B795F111F8CFFAF4BB0F11F426
:1010F00060FF1BC06F5F7F4F8F4F9F4F16C08823CD
:1011000011F096E911C0772321F09EE8872F762F02
:1011100005C0662371F096E8862F70E060E02AF043
:101120009A95660F771F881FDAF7880F969587952F
:1011300097F9089557FD9058440F551F59F05F3F98
:1011400071F04795880F97FB991F61F09F3F79F0E9
:1011500087950895121613061406551FF2CF46956B
:10116000F1DF08C0161617061806991FF1CF8695ED
:101170007105610508940895E894BB2766277727D1
:10118000CB0197F9089566D008F48FEF08950BD03E
:101190009CC08DD028F092D018F0952309F07EC025
:1011A00083C01124EACFC6DFA0F3959FD1F3950F3A
:1011B00050E0551F629FF001729FBB27F00DB11DDB
:1011C000639FAA27F00DB11DAA1F649F6627B00D6B
:1011D000A11D661F829F2227B00DA11D621F739F54
:1011E000B00DA11D621F839FA00D611D221F749F62
:1011F0003327A00D611D231F849F600D211D822FA9
:10120000762F6A2F11249F5750408AF0E1F08823EF
:101210004AF0EE0FFF1FBB1F661F771F881F9150FC
:101220005040A9F79E3F510570F038C0A6CF5F3FF0
:10123000ECF3983EDCF3869577956795B795F7952F
:10124000E7959F5FC1F7FE2B880F911D96958795B7
:1012500097F90895990F0008550FAA0BE0E8FEEFE3
:1012600016161706E807F907C0F012161306E4076A
:10127000F50798F0621B730B840B950B39F40A2663
:1012800061F0232B242B252B21F408950A2609F441
:10129000A140A6958FEF811D811D089597F99F6745
:1012A00080E870E060E008959FEF80EC08950024EE
:1012B0000A941616170618060906089500240A94BB
:1012C00012161306140605060895092E0394000C41
:1012D00011F4882352F0BB0F40F4BF2B11F460FFD0
:1012E00004C06F5F7F4F8F4F9F4F0895A9DEB7FFF8
:1012F0000895821B930B0895EE0FFF1F0590F49144
:08130000E02D0994F894FFCFE1
:10130800000000007001D4000101BB01320110018E
:1013180024010D0A00696E6375696500646573636D
:101328007569650070616E6F750073746172740021
:10133800686F6C640034206D696E0036206D696ECC
:081348000038206D696E000001
:00000001FF
