:020000040000FA
:1000000040C064C063C062C061C060C05FC05EC009
:100010005DC04CC35BC0B9C393C358C057C056C082
:1000200055C054C053C000000000370034003100F8
:100030000000000038003500320000000000000021
:1000400000000003040600000000000000000102A0
:100050000408102040800102040810200102040856
:1000600010200000000036003300300004040404B7
:100070000404040402020202020203030303030352
:10008000330411241FBECFE5D4E0DEBFCDBF10E0A6
:10009000A0E6B0E0EAE2F3E102C005900D92AC3ACE
:1000A000B107D9F722E0ACEAB0E001C01D92AB3253
:1000B000B207E1F710E0C1E4D0E003C02197FE01F0
:1000C0002CD9C034D107D1F745D42DC999CF85E4B7
:1000D00087B9369A3699FECFA4B1B5B128EE33E090
:1000E00016D92FEF33E040E050E07DD7293E83E082
:1000F000380714F028EE33E037FF02C030E020E08C
:10010000B901330F880B990BEBD728E431EE4AEF96
:100110005EE34ED820E030E040E450E449D8ADD76B
:10012000CB01089590E0FC01E65CFF4F3491FC01A7
:10013000E25BFF4F2491FC01E459FF4FE491EE2371
:10014000E1F0332349F03430C9F03630D1F03330A8
:1001500019F48FB58F778FBDF0E0EE0FFF1FE05DD4
:10016000FF4FA591B4918FB7F89461110EC09C9187
:10017000E22FE095E923EC938FBF08958FB58F7D33
:10018000EACF85B58F7D85BDE7CFEC91E22BF3CF2C
:100190002FB7F8946091C2007091C3008091C400A1
:1001A0009091C5002FBF0895AF92BF92CF92DF927A
:1001B000EF92FF920F931F93CF93DF936C017B011C
:1001C0008B01040F151FEB015E01AE18BF08C017AD
:1001D000D10759F06991D601ED91FC910190F08120
:1001E000E02DC6010995892B79F7C501DF91CF91E3
:1001F0001F910F91FF90EF90DF90CF90BF90AF9045
:100200000895FC01538D448D252F30E0842F90E01C
:10021000821B930B541710F0CF9608950197089501
:10022000FC01918D828D981761F0A28DAE0FBF2FCA
:10023000B11D5D968C91928D9F5F9F73928F90E020
:1002400008958FEF9FEF0895FC01918D828D98178F
:1002500031F0828DE80FF11D858D90E008958FEFCC
:100260009FEF0895FC01918D228D892F90E0805C95
:100270009F4F821B91098F739927089586EC90E018
:10028000F1DF21E0892B09F420E0822F089580E03E
:1002900090E0892B19F0F2DF8111B2CE0895FC01B4
:1002A000A48DA80FB92FB11DA35ABF4F2C91848DD7
:1002B00090E001968F739927848FA689B7892C9334
:1002C000A089B1898C9182748C93938D848D9813BD
:1002D00006C00288F389E02D80818F7D8083089598
:1002E000EF92FF920F931F93CF93DF93EC0181E086
:1002F000888F9B8D8C8D981319C0E889F98980812E
:1003000085FF14C09FB7F894EE89FF896083E88960
:10031000F9898081827480839FBF81E090E0DF91C2
:10032000CF911F910F91FF90EF900895F62E0B8DB6
:1003300010E00F5F1F4F0F731127E02E8C8D8E1171
:100340000BC00FB607FCFACFE889F989808185FFD9
:10035000F5CFCE01A4DFF2CFEB8DEC0FFD2FF11D19
:10036000E35AFF4FF0829FB7F8940B8FEA89FB891D
:1003700080818062D0CFCF93DF93EC01888D88237A
:10038000B1F0AA89BB89E889F9898C9185FD03C000
:10039000808186FD0CC00FB607FCF7CF8C9185FFDE
:1003A000F2CF808185FFEDCFCE0179DFEACFDF91FB
:1003B000CF9108958F929F92AF92BF92CF92DF928A
:1003C000EF92FF920F931F93CF93DF93EC018981FC
:1003D00082FD14C085FD12C0EC89FD8920813E8913
:1003E00081FB992790F983FB882780F98927922F31
:1003F000932321E009F020E082278A8BC9DEAB013C
:10040000BC019A892B898881992309F47BC0211129
:1004100079C080FD5DC0816088834E875F87688B6F
:10042000798B8B89882319F1992309F10D811E811C
:1004300030E020E0CE84DF84E888F9884A015B015F
:100440008C189D08AE08BF0875016401C016D1065E
:10045000E206F30660F0888181FD09C02B852D87B7
:100460008A648F7788834E875F87688B798B0E8548
:100470001F8528893989401B510B620B730B0F8133
:10048000188530E020E0401751076207730750F0ED
:100490008B85882339F0911105C08C871B86888154
:1004A00084608883898186FF06C01C8698819B7F33
:1004B00098838F7B8983DF91CF911F910F91FF905C
:1004C000EF90DF90CF90BF90AF909F908F90089566
:1004D0000E851F85288939896A017B01C01AD10AD6
:1004E000E20AF30A0B811C8130E020E0C016D1063D
:1004F000E206F30608F4BBCF21E02B8B8062806814
:1005000088838FCF8E7F888391118BCF222309F42C
:10051000AECF1B8A81FD03C08B858F5F8B8788815F
:100520008D7F806188834E875F87688B798B86FF9C
:1005300004C01C861B868F7B8883888187FF97CFAA
:100540008F7788838981816089836BCFCF93DF9395
:10055000EC01898184FF02C0CE012CDF988195FBDC
:10056000882780F995FF02C09F7D9883DF91CF9106
:100570000895CF92DF92EF92FF920F931F93CF9344
:10058000DF93EC018B01F42E442329F001DE698313
:100590007A838B839C838F8181110FC0FF2069F048
:1005A0000115110551F0F4DD69837A838B839C83F7
:1005B00081E08F8361E08881B5DD8F818823B1F090
:1005C000E7DDC980DA80EB80FC80AB01BC014C190F
:1005D0005D096E097F0930E020E04017510762078E
:1005E000730720F01F8260E088819CDD8F8190E09E
:1005F000DF91CF911F910F91FF90EF90DF90CF90FF
:100600000895CF93DF93EC01862F2CE330E03C83F9
:100610002B8324EF31E03E832D8338872F8320E91D
:1006200031E03A8729871B861C861D861E861F8619
:10063000188A198A1A8A1B8A6A8399819F7D977FF3
:10064000998362E0D4D08A8190E0FC01E459FF4FA5
:10065000E491F0E0EE0FFF1FEE59FF4F259134912A
:100660003D8B2C8BFC01E25BFF4FE491EE8B89818B
:100670008B7E8D7F8983DF91CF910895FC0101905E
:100680000020E9F73197AF01481B590BBC0186ECFC
:1006900090E08ACDCF93DF93F1DFEC0186E790E025
:1006A000EDDF8C0F9D1FDF91CF9108951F920F9268
:1006B0000FB60F9211242F933F938F939F93AF9375
:1006C000BF938091C2009091C300A091C400B091EB
:1006D000C5003091C10023E0230F2D3758F5019656
:1006E000A11DB11D2093C1008093C2009093C3004F
:1006F000A093C400B093C5008091BD009091BE004E
:10070000A091BF00B091C0000196A11DB11D8093C2
:10071000BD009093BE00A093BF00B093C000BF91F6
:10072000AF919F918F913F912F910F900FBE0F909E
:100730001F90189526E8230F0296A11DB11DD2CF58
:100740001F920F920FB60F9211242F933F934F9346
:100750005F936F937F938F939F93AF93BF93EF9329
:10076000FF9386EC90E09BDDFF91EF91BF91AF91FD
:100770009F918F917F916F915F914F913F912F91B9
:100780000F900FBE0F901F9018951F920F920FB6EB
:100790000F9211242F938F939F93EF93FF93E091E8
:1007A000D600F091D7008081E091DC00F091DD006F
:1007B00082FD1BC090818091DF008F5F8F7320913D
:1007C000E000821741F0E091DF00F0E0EA53FF4FD4
:1007D000958F8093DF00FF91EF919F918F912F91E3
:1007E0000F900FBE0F901F9018958081F4CFCF937C
:1007F000DF9390E0FC01E25BFF4F249184599F4F0F
:10080000FC0184918823C9F090E0880F991FFC01B6
:10081000EA5DFF4FA591B491FC01E05DFF4FC591EA
:10082000D49161110DC09FB7F8948C9120958223CB
:100830008C938881282328839FBFDF91CF910895CF
:10084000623051F49FB7F8943C91822F80958323B6
:100850008C93E8812E2BEFCF8FB7F894EC912E2B51
:100860002C938FBFEACFE6ECF0E01382128288EE81
:1008700093E0A0E0B0E084839583A683B78388E605
:1008800090E09183808380E490E09587848729E2DB
:1008900030E0378726872BE230E0318B208B2AE24D
:1008A00030E0338B228B958B848B8CE290E0978B9E
:1008B000868B118E128E138E148E88E592E09093A3
:1008C0002A028093290280E69AEE90932802809370
:1008D00027028CEB92E090932602809325026AE037
:1008E0008EE092E08EDE6BE087EF91E08ADE6CE0D6
:1008F00080EE91E086DE6DE089EC91E082DE62E1DF
:1009000082EB91E07EDE61E18BE991E07ADE85E0C9
:100910008093930161E06BDF88E080938B0161E05D
:1009200066DF82E08093830161E061DF83E0809392
:100930007B0161E05CDF84E08093730161E057DF5D
:1009400087E080936B0161E052DF86E08093630172
:1009500061E04DCFCF93DF93CDB7DEB7A1970FB650
:10096000F894DEBF0FBECDBF789483B7826083BF9B
:1009700083B7816083BF89B7816089BF1EBC8EB594
:1009800082608EBD8EB581608EBD8FB581608FBD5A
:1009900085B5846085BD85B5806485BD329A319A00
:1009A000309A379A1AB888EC90E0909316028093A8
:1009B000150288EE93E09093CF018093CE01E091F1
:1009C000D600F091D70082E08083E091D200F091D0
:1009D000D3001082E091D400F091D5008FEC808399
:1009E0001092DE00E091DA00F091DB0086E880836F
:1009F000E091D800F091D900808180618083E091FE
:100A0000D800F091D900808188608083E091D8007F
:100A1000F091D900808180688083E091D800F091C6
:100A2000D90080818F7D80834AE0442E512C612C37
:100A3000712C50EDA52E57E0B52E60E7262E67E10C
:100A4000362E70EB872E74E0972E8EE092E0B2DCAB
:100A500080EE91E0AFDC87EF91E0ACDC89EC91E0D7
:100A6000A9DC82EB91E0A6DC8BE991E0A3DC0091AC
:100A7000290210912A0240E0B8018BE791E079DD6C
:100A800040E0B80183E791E074DD6091BB007091B4
:100A9000BC0040E083E891E06CDD60916000709103
:100AA000610040E08BE691E064DD60912502709189
:100AB000260240E08BE891E05CDD6091B700709128
:100AC000B80040E083E691E054DD6091B30070919E
:100AD000B40040E083E991E04CDD80910F0284FF97
:100AE00003C08EE092E066DC80910F0280FF24C09C
:100AF0008E7F80930F0289E790E0CCDD6091290220
:100B000070912A0241E08BE791E033DDB092BC00A6
:100B1000A092BB0041E060ED77E083E891E029DD41
:100B200040E070E060E083E691E023DD40E070E0CB
:100B300060E083E991E01DDD80910F0284FF03C036
:100B40008EE092E037DC80910E0286FF31C060912A
:100B5000290270912A0241E08BE791E00ADDB09210
:100B6000BC00A092BB0041E060ED77E083E891E03B
:100B700000DD80912702909128022EE1289FB0018C
:100B8000299F700D1124CB01B0E0A0E08093B70045
:100B90009093B800A093B900B093BA0041E083E607
:100BA00091E0E7DC40E070E060E083E991E0E1DCC7
:100BB00080EE91E0CBDC8823F1F180E890E06ADD03
:100BC0006091290270912A0241E083E791E0D1DC33
:100BD00088EE93E09093BC008093BB0041E068EE08
:100BE00073E083E891E0C5DC8091270290912802B0
:100BF000EEE1E89F8001E99F100D11246801F12CBE
:100C0000E12CC092B700D092B800E092B900F09207
:100C1000BA0041E0B80183E691E0ABDCC092B300DA
:100C2000D092B400E092B500F092B60041E0B80175
:100C300083E991E09EDC87EF91E088DC882389F1ED
:100C400088E890E027DDC0906000D0906100E090DF
:100C50006200F090630040E0B6018BE691E089DC31
:100C6000892B09F076C184EF91E09093BC008093CA
:100C7000BB0041E064EF71E083E891E07ADCC09270
:100C8000B300D092B400E092B500F092B60041E01B
:100C9000B60183E991E06DDC41E0B6018BE691E0BD
:100CA00068DC89EC91E052DC882339F18091B30152
:100CB00084FF03C082EB91E07DDB8091C401882337
:100CC000E1F0609160007091610040E08BE691E09E
:100CD00050DC892B91F08091B20081110EC08EE81A
:100CE00090E0D8DC609125027091260241E08BE80B
:100CF00091E03FDC81E08093B2008091CA0184FFE3
:100D000003C089EC91E056DB8091C90186FF52C097
:100D1000609160007091610040E08BE691E029DC19
:100D2000892B09F047C084E990E0B4DC3092BC0024
:100D30002092BB0041E060E777E183E891E019DCB5
:100D400027DA6B017C0124DA6C197D098E099F0971
:100D5000603777418105910568F58EE092E02ADBE6
:100D600080EE91E027DB87EF91E024DB89EC91E0D6
:100D700021DB8EE092E0EADB882309F4F6C0809163
:100D8000270290912802880F991F880F991FB0E0C1
:100D9000A0E08093600090936100A0936200B09304
:100DA000630089E990E076DC40E070E060E083E891
:100DB00091E0DFDB6091B7007091B80040E083E61E
:100DC00091E0D7DB892BE9F1E3D90091AE001091D6
:100DD000AF002091B0003091B100601B710B820B0D
:100DE000930B613D77408105910558F170D98C01D5
:100DF0009093AD008093AC00CBD96093AE0070931C
:100E0000AF008093B0009093B10004311540CCF056
:100E10008091270290912802EEE1E89FB001E99FBE
:100E2000700D1124CB01B0E0A0E08093B700909347
:100E3000B800A093B900B093BA0041E083E691E016
:100E400098DB8091B2008823C9F08091B30184FFC0
:100E500003C082EB91E0AEDA8091C40181110EC033
:100E60001092B20040E070E060E083E991E081DB45
:100E700040E070E060E08BE691E07BDB6091600039
:100E80007091610040E08BE691E073DB892B09F4FF
:100E900055C08091B200882309F450C079D90091DF
:100EA000AE001091AF002091B0003091B100601BF6
:100EB000710B820B930B12D120E030E04AEF53E428
:100EC00073D11816DCF503D98C019093AD00809393
:100ED000AC005ED96093AE007093AF008093B00019
:100EE0009093B1000431F5E01F0744F19801110F10
:100EF000440B550B19A27E0181E2E80EF11CCA01D8
:100F0000B901A30192018BD0605DF70162937F016B
:100F1000211531054105510591F7309711F0CF01A9
:100F2000ADDB86E790E0AADB9092BC008092BB002C
:100F300041E060EB74E083E891E01BDB80E090E04F
:100F4000892B09F482CD9AD9882309F47ECD58D80B
:100F50007CCD1092B20040E070E060E083E991E067
:100F600008DB40E070E060E099CE87EF91E0EEDAD8
:100F70008823B9F02091270230912802F6E0F29FF1
:100F8000C001F39F900D1124B0E0A0E080936000B9
:100F900090936100A0936200B09363008FE990E0AA
:100FA00002CF80EE91E0D2DA8823B1F0809127025F
:100FB0009091280223E0880F991F2A95E1F7B0E06D
:100FC000A0E08093600090936100A0936200B093D2
:100FD000630085EA90E0E7CE89EC91E0B7DA8823F8
:100FE00009F4B1CEE1CE052E97FB16F400940FD094
:100FF00057FD05D014D007FC02D046F408C0509528
:101000004095309521953F4F4F4F5F4F08959095F4
:101010008095709561957F4F8F4F9F4F0895A1E206
:101020001A2EAA1BBB1BFD010DC0AA1FBB1FEE1F62
:10103000FF1FA217B307E407F50720F0A21BB30BAD
:10104000E40BF50B661F771F881F991F1A9469F729
:1010500060957095809590959B01AC01BD01CF0185
:101060000895A29FB001B39FC001A39F01D0B29F7A
:10107000700D811D1124911D089504D06894B11143
:101080008DC0089570D088F09F5790F0B92F9927A0
:10109000B751A0F0D1F0660F771F881F991F1AF083
:1010A000BA95C9F712C0B13081F077D0B1E0089598
:1010B00074C0672F782F8827B85F39F0B93FCCF319
:1010C000869577956795B395D9F73EF49095809579
:1010D000709561957F4F8F4F9F4F0895E89409C099
:1010E00097FB3EF490958095709561957F4F8F4F5B
:1010F0009F4F9923A9F0F92F96E9BB279395F69571
:10110000879577956795B795F111F8CFFAF4BB0FEE
:1011100011F460FF1BC06F5F7F4F8F4F9F4F16C052
:10112000882311F096E911C0772321F09EE8872FDC
:10113000762F05C0662371F096E8862F70E060E098
:101140002AF09A95660F771F881FDAF7880F969511
:10115000879597F9089557FD9058440F551F59F0FA
:101160005F3F71F04795880F97FB991F61F09F3F94
:1011700079F087950895121613061406551FF2CFBD
:101180004695F1DF08C0161617061806991FF1CF0D
:1011900086957105610508940895E894BB27662734
:1011A0007727CB0197F9089566D008F48FEF08955B
:1011B0000BD09CC08DD028F092D018F0952309F068
:1011C0007EC083C01124EACFC6DFA0F3959FD1F380
:1011D000950F50E0551F629FF001729FBB27F00DE5
:1011E000B11D639FAA27F00DB11DAA1F649F66273A
:1011F000B00DA11D661F829F2227B00DA11D621F89
:10120000739FB00DA11D621F839FA00D611D221F42
:10121000749F3327A00D611D231F849F600D211D26
:10122000822F762F6A2F11249F5750408AF0E1F0C9
:1012300088234AF0EE0FFF1FBB1F661F771F881F12
:1012400091505040A9F79E3F510570F038C0A6CF8D
:101250005F3FECF3983EDCF3869577956795B795FD
:10126000F795E7959F5FC1F7FE2B880F911D969527
:10127000879597F90895990F0008550FAA0BE0E894
:10128000FEEF16161706E807F907C0F01216130648
:10129000E407F50798F0621B730B840B950B39F488
:1012A0000A2661F0232B242B252B21F408950A26EE
:1012B00009F4A140A6958FEF811D811D089597F92E
:1012C0009F6780E870E060E008959FEF80EC0895EC
:1012D00000240A9416161706180609060895002415
:1012E0000A9412161306140605060895092E03948F
:1012F000000C11F4882352F0BB0F40F4BF2B11F403
:1013000060FF04C06F5F7F4F8F4F9F4F0895A9DE2E
:10131000B7FF0895821B930B0895EE0FFF1F0590F2
:10132000F491E02D0994F894FFCFE09304000000BD
:1013300000007001D4000101BB0132011001240141
:101340000D0A00696E63756965006465736375698C
:10135000650070616E6F7500737461727400686F00
:101360006C640034206D696E0036206D696E003843
:06137000206D696E000013
:101C000012C02BC02AC029C028C027C026C025C0AA
:101C100024C023C022C021C020C01FC01EC01DC0C0
:101C20001CC01BC01AC011241FBECFE5D4E0DEBF0C
:101C3000CDBF10E0A0E6B0E0E8EEFFE102C0059005
:101C40000D92A236B107D9F711E0A2E6B0E001C0CB
:101C50001D92AA36B107E1F74FC0D2CFEF92FF92A3
:101C60000F931F93EE24FF24870113C00894E11CF7
:101C7000F11C011D111D81E0E81682E1F8068AE7DA
:101C8000080780E0180728F0E0916200F0916300F7
:101C900009955F9BEBCF8CB1992787FD90951F919C
:101CA0000F91FF90EF9008955D9BFECF8CB9089542
:101CB000D5DF803221F484E1F7DF80E1F5DF08959C
:101CC0001F93182FCBDF803231F484E1EDDF812FB9
:101CD000EBDF80E1E9DF1F9108951F93CF93DF933E
:101CE000182FC0E0D0E002C0B9DF2196C117E0F3A1
:101CF000DF91CF911F910895CFE5D4E0DEBFCDBF36
:101D0000000010BC83E389B988E18AB986E880BD08
:101D1000BD9A1092680130E2E0E0F0E02FE088B375
:101D2000832788BBCF010197F1F7215027FFF7CF19
:101D300020E12093680192DF803381F1813399F4AF
:101D40008DDF8032C1F784E1AFDF81E4ADDF86E56E
:101D5000ABDF82E5A9DF80E2A7DF89E4A5DF83E5C9
:101D6000A3DF80E5C7C0803429F478DF8638B0F07F
:101D700075DF14C0813471F471DF803811F482E0B2
:101D80001DC1813811F481E019C1823809F015C1F3
:101D900082E114C1823421F484E19FDF89DFCBCF5B
:101DA000853411F485E0F9CF8035C1F38135B1F385
:101DB0008235A1F3853539F451DF809364004EDF1D
:101DC00080936500EBCF863519F484E086DFF5C09B
:101DD000843609F093C042DF809367013FDF809330
:101DE0006601809169018E7F8093690137DF8534B8
:101DF00029F480916901816080936901C0E0D0E09D
:101E000006E610E005C02ADFF80181938F012196D4
:101E10008091660190916701C817D907A0F31EDF72
:101E2000803209F088CF8091690180FF1FC020E0D7
:101E300030E0E6E6F0E012C0A0916400B0916500E9
:101E40008191082EC5D08091640090916500019623
:101E500090936500809364002F5F3F4F80916601EF
:101E6000909167012817390738F343C0F894E19936
:101E7000FECF1127E0916400F0916500EE0FFF1F87
:101E8000C6E6D0E0809166019091670180FF01C0B5
:101E90000196103051F422D003E000935700E895EA
:101EA0001DD001E100935700E8950990199016D0D4
:101EB00001E000935700E8951395103258F0112770
:101EC0000DD005E000935700E89508D001E100939C
:101ED0005700E8953296029739F0DBCF0091570012
:101EE00001700130D9F30895103011F00296E7CF58
:101EF000112484E1D9DE80E1D7DE1DCF843709F0DB
:101F00004BC0ACDE80936701A9DE80936601A6DE3C
:101F100090916901853421F49160909369010DC01D
:101F20009E7F909369018091640090916500880F75
:101F3000991F909365008093640090DE803209F0D1
:101F4000FACE84E1B1DEC0E0D0E01EC0809169012C
:101F500080FF07C0A0916400B091650031D0802D52
:101F600008C081FD07C0E0916400F0916500E49134
:101F70008E2F9ADE80916400909165000196909377
:101F800065008093640021968091660190916701BD
:101F9000C817D907D8F2AFCF853761F45FDE80323A
:101FA00009F0C9CE84E180DE8EE17EDE83E97CDE4D
:101FB00087E0A0CF863709F0BECE80E081DEBBCEC1
:101FC000E199FECFBFBBAEBBE09A11960DB208956A
:101FD000E199FECFBFBBAEBB0DBA11960FB6F89418
:0A1FE000E29AE19A0FBE0895800016
:00000001FF
