:100000000C9458000C9480000C9480000C94800098
:100010000C9480000C9480000C9480000C94800060
:100020000C9480000C9480000C9480000C94800050
:100030000C9480000C9480000C9480000C94800040
:100040000C9444030C9480000C94B4030C948E0321
:100050000C9480000C9480000C9480000C94800020
:100060000C9480000C948000000000002500280003
:100070002B0000000000240027002A0001020408D1
:100080001020408001020408102001020408102002
:1000900000000000230026002900040404040404D6
:1000A0000404020202020202030303030303E60341
:1000B00011241FBECFEFD8E0DEBFCDBF11E0A0E01E
:1000C000B1E0ECE5FCE002C005900D92A035B1076F
:1000D000D9F722E0A0E5B1E001C01D92AF30B20730
:1000E000E1F710E0C8E5D0E004C02197FE010E94CE
:1000F0002606C735D107C9F70E943E040C942C068A
:100100000C9400008F929F92AF92BF92CF92DF9299
:10011000EF92FF920F931F938091F90182FD18C017
:1001200085FD16C0E0910C02F0910D022081309106
:100130000E0281FB992790F983FB882780F9892794
:10014000922F932321E009F020E0822780930A0276
:100150008FB7F8944091570150915801609159011F
:1001600070915A018FBF90910A0220910B028091E9
:10017000F801992309F4A5C02111A3C080FD7FC017
:1001800081608093F80140930602509307026093C8
:1001900008027093090280910B02882389F1992348
:1001A00079F10091FD011091FE0130E020E0C09056
:1001B0000602D0900702E0900802F09009024A017E
:1001C0005B018C189D08AE08BF0875016401C0165C
:1001D000D106E206F306A0F08091F80181FD10C07F
:1001E00020910302209305028A648F778093F8019F
:1001F000409306025093070260930802709309022D
:100200000091060210910702209108023091090224
:10021000401B510B620B730B0091FF011091000208
:1002200030E020E0401751076207730778F08091B3
:100230000302882359F0911109C08093040210929F
:1002400003028091F80184608093F8018091F901A4
:1002500086FF0AC0109204029091F8019B7F909350
:10026000F8018F7B8093F9011F910F91FF90EF9020
:10027000DF90CF90BF90AF909F908F9008950091A6
:1002800006021091070220910802309109026A01CA
:100290007B01C01AD10AE20AF30A0091FB01109116
:1002A000FC0130E020E0C016D106E206F30608F4B7
:1002B000A7CF21E020930B02806280688093F80131
:1002C0006ACF8E7F8093F801911165CF222309F4C4
:1002D00097CF10920B0281FD05C0809103028F5FC2
:1002E000809303028091F8018D7F80618093F801F3
:1002F000409306025093070260930802709309022C
:1003000086FF07C010920402109203028F7B809335
:10031000F8018091F80187FF73CF8F778093F80100
:100320008091F90181608093F90135CFAF92BF923E
:10033000CF92DF92EF92FF920F931F93CF93DF93B1
:100340006C017B018B01040F151FEB015E01AE18E0
:10035000BF08C017D10759F06991D601ED91FC9102
:100360000190F081E02DC6010995892B79F7C5012F
:10037000DF91CF911F910F91FF90EF90DF90CF9081
:10038000BF90AF900895FC01538D448D252F30E030
:10039000842F90E0821B930B541710F0CF96089592
:1003A00001970895FC01918D828D981761F0A28DBF
:1003B000AE0FBF2FB11D5D968C91928D9F5F9F7385
:1003C000928F90E008958FEF9FEF0895FC01918D3B
:1003D000828D981731F0828DE80FF11D858D90E0A8
:1003E00008958FEF9FEF0895FC01918D228D892F45
:1003F00090E0805C9F4F821B91098F73992708952D
:100400008BE591E00E94F40121E0892B09F420E0C2
:10041000822F089580E090E0892B29F00E9400024D
:1004200081110C9400000895FC01A48DA80FB92F30
:10043000B11DA35ABF4F2C91848D90E001968F730C
:100440009927848FA689B7892C93A089B1898C912B
:10045000837080648C93938D848D981306C002887A
:10046000F389E02D80818F7D80830895EF92FF9244
:100470000F931F93CF93DF93EC0181E0888F9B8DC7
:100480008C8D98131AC0E889F989808185FF15C081
:100490009FB7F894EE89FF896083E889F9898081A4
:1004A0008370806480839FBF81E090E0DF91CF9173
:1004B0001F910F91FF90EF900895F62E0B8D10E095
:1004C0000F5F1F4F0F731127E02E8C8D8E110CC004
:1004D0000FB607FCFACFE889F989808185FFF5CF4F
:1004E000CE010E941402F1CFEB8DEC0FFD2FF11D18
:1004F000E35AFF4FF0829FB7F8940B8FEA89FB898C
:1005000080818062CFCFCF93DF93EC01888D8823E9
:10051000B9F0AA89BB89E889F9898C9185FD03C066
:10052000808186FD0DC00FB607FCF7CF8C9185FF4B
:10053000F2CF808185FFEDCFCE010E941402E9CF7A
:10054000DF91CF910895CF93DF938091FA0190E0EE
:10055000FC01E458FF4F249186569F4FFC01849183
:100560008823C1F090E0880F991FFC01EE58FF4FDF
:10057000C591D491FC01E859FF4FA591B4919FB763
:10058000F8943881822F809583238883EC91E22B25
:10059000EC939FBF8091FA0190E0FC01E656FF4F7B
:1005A000E491F0E0EE0FFF1FE057FF4F25913491EB
:1005B00030930D0220930C02FC01E458FF4FE491AC
:1005C000E0930E02DF91CF910895FC01019000208D
:1005D000E9F73197AF01481B590BBC018BE591E05E
:1005E0000C9496018F929F92AF92BF920F931F939C
:1005F000CF93DF93CDB7DEB7A1970FB6F894DEBFE8
:100600000FBECDBF19A2423008F44AE08E010F5D43
:100610001F4F842E912CB12CA12CA50194010E9476
:100620000406E62FB901CA01EA30F4F4E05DD8010E
:10063000EE938D01232B242B252B79F790E080E07E
:10064000109719F0CD010E94E502A1960FB6F8941B
:10065000DEBF0FBECDBFDF91CF911F910F91BF9035
:10066000AF909F908F900895E95CE1CFCF93DF9397
:100670000E94E502EC0182E191E00E94E5028C0F0C
:100680009D1FDF91CF9108951F920F920FB60F9289
:1006900011242F933F938F939F93AF93BF93809198
:1006A000570190915801A0915901B0915A01309190
:1006B000560123E0230F2D3758F50196A11DB11DDA
:1006C000209356018093570190935801A0935901AC
:1006D000B0935A018091520190915301A09154011D
:1006E000B09155010196A11DB11D809352019093C7
:1006F0005301A0935401B0935501BF91AF919F91C5
:100700008F913F912F910F900FBE0F901F901895D2
:1007100026E8230F0296A11DB11DD2CF1F920F9282
:100720000FB60F9211242F933F934F935F936F93C4
:100730007F938F939F93AF93BF93EF93FF938BE53B
:1007400091E00E941402FF91EF91BF91AF919F91B0
:100750008F917F916F915F914F913F912F910F906A
:100760000FBE0F901F9018951F920F920FB60F9209
:1007700011242F938F939F93EF93FF93E0916B013D
:10078000F0916C018081E0917101F091720182FD24
:100790001BC09081809174018F5F8F7320917501D0
:1007A000821741F0E0917401F0E0E55AFE4F958F19
:1007B00080937401FF91EF919F918F912F910F90F2
:1007C0000FBE0F901F9018958081F4CFCF93DF93C9
:1007D000EBE5F1E01382128288EE93E0A0E0B0E056
:1007E00084839583A683B78384E091E0918380839B
:1007F00085EC90E09587848784EC90E097878687E6
:1008000080EC90E0918B808B81EC90E0938B828BDD
:1008100082EC90E0958B848B86EC90E0978B868BB6
:10082000118E128E138E148EE8EFF1E08CE390E0BF
:100830009483838384EF91E0968385839087878375
:1008400080E991E092878187138614861586168643
:100850001786108A118A128A138A83E08283C9EF6D
:10086000D1E088818F7D877F88830E94A302888161
:100870008B7E8D7F8883DF91CF910895789484B5A6
:10088000826084BD84B5816084BD85B5826085BD8C
:1008900085B5816085BD80916E00816080936E001A
:1008A000109281008091810082608093810080910C
:1008B00081008160809381008091800081608093BD
:1008C00080008091B10084608093B1008091B0007D
:1008D00081608093B00080917A00846080937A0078
:1008E00080917A00826080937A0080917A008160A2
:1008F00080937A0080917A00806880937A001092C9
:10090000C100E0916B01F0916C0182E08083E09185
:100910006701F09168011082E0916901F0916A012C
:100920008FEC808310927301E0916F01F091700160
:1009300086E08083E0916D01F0916E01808180619D
:100940008083E0916D01F0916E01808188608083E9
:10095000E0916D01F0916E01808180688083E0916B
:100960006D01F0916E0180818F7D808382E390E044
:100970009093FC018093FB018CE291E09093FE0147
:100980008093FD0188E592E0909300028093FF013F
:100990008091F901877F8093F90185FF0E94A3026E
:1009A0008091F9018D7F8093F901C0E0D0E00E9431
:1009B00082008091F90184FD0E9482008091F901FA
:1009C00080FF07C08E7F8093F90185E191E00E944E
:1009D00036038091F90184FD0E9482008091F80124
:1009E00082FF0DC080910402813049F48091F901A9
:1009F00080648093F9018BE191E00E94360380913D
:100A0000F90184FD0E9482008091F80182FF0DC0EF
:100A100080910402823049F48091F90180648093CE
:100A2000F90182E291E00E9436038091F90184FD90
:100A30000E9482008091F80182FF0DC08091040223
:100A4000833049F48091F90180648093F90189E24F
:100A500091E00E9436038091F90184FD0E9482009A
:100A60008091F80182FF11C08091F9018064809328
:100A7000F9016091040270E090E080E04AE00E9499
:100A8000F20282E191E00E94E5028091F90184FD89
:100A90000E9482008091F80185FF07C08F7D8093BE
:100AA000F80180E391E00E9436038091F90184FD12
:100AB0000E9482008091F80184FF07C08F7E80939E
:100AC000F80186E391E00E9436038091F90184FDEC
:100AD0000E9482008091F80186FF15C08EE391E0AC
:100AE0000E94E5028091F90184FD0E9482006091DC
:100AF000050270E090E080E04AE00E94F20282E1AC
:100B000091E00E94E5028091F90184FD0E9482003B
:100B10008091F80186FF04C087E491E00E943603CB
:100B20008091F90184FD0E9482008091030281116D
:100B300060C08091F80186FF5CC08FB7F894409147
:100B40005701509158016091590170915A018FBF1E
:100B50008091060290910702A0910802B0910902CB
:100B6000481B590B6A0B7B0B80910102909102028A
:100B7000B0E0A0E0481759076A077B07D0F12FB70C
:100B8000F8948091570190915801A0915901B0912A
:100B90005A012FBF8093060290930702A093080288
:100BA000B0930902C0905001D09051018FEFC81A44
:100BB000D80AD0925101C09250010D2C000CEE08C1
:100BC000FF084AE0C701B601F7FE0DC06DE28BE5F4
:100BD00091E00E94360266277727CB016C197D09C8
:100BE0008E099F094AE00E94F20282E191E00E9490
:100BF000E502209709F4DBCE0E940002882309F465
:100C0000D6CE0E940000D3CEA1E21A2EAA1BBB1B97
:100C1000FD010DC0AA1FBB1FEE1FFF1FA217B307C8
:100C2000E407F50720F0A21BB30BE40BF50B661FDE
:100C3000771F881F991F1A9469F7609570958095A2
:100C400090959B01AC01BD01CF010895EE0FFF1FF0
:0C0C50000590F491E02D0994F894FFCF7A
:100C5C000000000036029601C3018302F401D201A8
:100C6C00E6010D0A00436C69636B0053696E676C97
:100C7C006500446F75626C6500547269706C650038
:100C8C0050726573730052656C6561736500486FD3
:100C9C006C64696E672000486F6C64696E67000055
:00000001FF
